{
  "contractName": "TokenContract",
  "abi": [
    {
      "constant": false,
      "inputs": [
        {
          "name": "spender",
          "type": "address"
        },
        {
          "name": "amount",
          "type": "uint256"
        }
      ],
      "name": "approve",
      "outputs": [
        {
          "name": "success",
          "type": "bool"
        }
      ],
      "payable": false,
      "type": "function",
      "stateMutability": "nonpayable"
    },
    {
      "constant": true,
      "inputs": [],
      "name": "totalSupply",
      "outputs": [
        {
          "name": "",
          "type": "uint256"
        }
      ],
      "payable": false,
      "type": "function",
      "stateMutability": "view"
    },
    {
      "constant": false,
      "inputs": [
        {
          "name": "from",
          "type": "address"
        },
        {
          "name": "to",
          "type": "address"
        },
        {
          "name": "amount",
          "type": "uint256"
        }
      ],
      "name": "transferFrom",
      "outputs": [
        {
          "name": "success",
          "type": "bool"
        }
      ],
      "payable": false,
      "type": "function",
      "stateMutability": "nonpayable"
    },
    {
      "constant": true,
      "inputs": [
        {
          "name": "owner",
          "type": "address"
        }
      ],
      "name": "balanceOf",
      "outputs": [
        {
          "name": "balance",
          "type": "uint256"
        }
      ],
      "payable": false,
      "type": "function",
      "stateMutability": "view"
    },
    {
      "constant": true,
      "inputs": [],
      "name": "owner",
      "outputs": [
        {
          "name": "",
          "type": "address"
        }
      ],
      "payable": false,
      "type": "function",
      "stateMutability": "view"
    },
    {
      "constant": false,
      "inputs": [
        {
          "name": "to",
          "type": "address"
        },
        {
          "name": "amount",
          "type": "uint256"
        }
      ],
      "name": "transfer",
      "outputs": [
        {
          "name": "success",
          "type": "bool"
        }
      ],
      "payable": false,
      "type": "function",
      "stateMutability": "nonpayable"
    },
    {
      "constant": true,
      "inputs": [
        {
          "name": "owner",
          "type": "address"
        },
        {
          "name": "spender",
          "type": "address"
        }
      ],
      "name": "allowance",
      "outputs": [
        {
          "name": "remaining",
          "type": "uint256"
        }
      ],
      "payable": false,
      "type": "function",
      "stateMutability": "view"
    },
    {
      "constant": true,
      "inputs": [],
      "name": "ttlSupply",
      "outputs": [
        {
          "name": "totalSupply",
          "type": "uint256"
        }
      ],
      "payable": false,
      "type": "function",
      "stateMutability": "view"
    },
    {
      "inputs": [],
      "payable": false,
      "type": "constructor",
      "stateMutability": "nonpayable"
    },
    {
      "anonymous": false,
      "inputs": [
        {
          "indexed": true,
          "name": "from",
          "type": "address"
        },
        {
          "indexed": true,
          "name": "to",
          "type": "address"
        },
        {
          "indexed": false,
          "name": "value",
          "type": "uint256"
        }
      ],
      "name": "Transfer",
      "type": "event"
    },
    {
      "anonymous": false,
      "inputs": [
        {
          "indexed": true,
          "name": "owner",
          "type": "address"
        },
        {
          "indexed": true,
          "name": "spender",
          "type": "address"
        },
        {
          "indexed": false,
          "name": "value",
          "type": "uint256"
        }
      ],
      "name": "Approval",
      "type": "event"
    }
  ],
  "bytecode": "0x6060604052620f4240600155341561001657600080fd5b33600260006101000a81548173ffffffffffffffffffffffffffffffffffffffff021916908373ffffffffffffffffffffffffffffffffffffffff16021790555060015460036000600260009054906101000a900473ffffffffffffffffffffffffffffffffffffffff1673ffffffffffffffffffffffffffffffffffffffff1673ffffffffffffffffffffffffffffffffffffffff16815260200190815260200160002081905550610a3f806100ce6000396000f30060606040526004361061008e576000357c0100000000000000000000000000000000000000000000000000000000900463ffffffff168063095ea7b31461009357806318160ddd146100ed57806323b872dd1461011657806370a082311461018f5780638da5cb5b146101dc578063a9059cbb14610231578063dd62ed3e1461028b578063fd1e68c2146102f7575b600080fd5b341561009e57600080fd5b6100d3600480803573ffffffffffffffffffffffffffffffffffffffff16906020019091908035906020019091905050610320565b604051808215151515815260200191505060405180910390f35b34156100f857600080fd5b610100610412565b6040518082815260200191505060405180910390f35b341561012157600080fd5b610175600480803573ffffffffffffffffffffffffffffffffffffffff1690602001909190803573ffffffffffffffffffffffffffffffffffffffff16906020019091908035906020019091905050610418565b604051808215151515815260200191505060405180910390f35b341561019a57600080fd5b6101c6600480803573ffffffffffffffffffffffffffffffffffffffff1690602001909190505061071f565b6040518082815260200191505060405180910390f35b34156101e757600080fd5b6101ef610768565b604051808273ffffffffffffffffffffffffffffffffffffffff1673ffffffffffffffffffffffffffffffffffffffff16815260200191505060405180910390f35b341561023c57600080fd5b610271600480803573ffffffffffffffffffffffffffffffffffffffff1690602001909190803590602001909190505061078e565b604051808215151515815260200191505060405180910390f35b341561029657600080fd5b6102e1600480803573ffffffffffffffffffffffffffffffffffffffff1690602001909190803573ffffffffffffffffffffffffffffffffffffffff16906020019091905050610982565b6040518082815260200191505060405180910390f35b341561030257600080fd5b61030a610a09565b6040518082815260200191505060405180910390f35b600081600460003373ffffffffffffffffffffffffffffffffffffffff1673ffffffffffffffffffffffffffffffffffffffff16815260200190815260200160002060008573ffffffffffffffffffffffffffffffffffffffff1673ffffffffffffffffffffffffffffffffffffffff168152602001908152602001600020819055508273ffffffffffffffffffffffffffffffffffffffff163373ffffffffffffffffffffffffffffffffffffffff167f8c5be1e5ebec7d5bd14f71427d1e84f3dd0314c0f7b2291e5b200ac8c7c3b925846040518082815260200191505060405180910390a36001905092915050565b60005481565b600081600360008673ffffffffffffffffffffffffffffffffffffffff1673ffffffffffffffffffffffffffffffffffffffff16815260200190815260200160002054101580156104e5575081600460008673ffffffffffffffffffffffffffffffffffffffff1673ffffffffffffffffffffffffffffffffffffffff16815260200190815260200160002060003373ffffffffffffffffffffffffffffffffffffffff1673ffffffffffffffffffffffffffffffffffffffff1681526020019081526020016000205410155b80156104f15750600082115b801561057c5750600360008473ffffffffffffffffffffffffffffffffffffffff1673ffffffffffffffffffffffffffffffffffffffff1681526020019081526020016000205482600360008673ffffffffffffffffffffffffffffffffffffffff1673ffffffffffffffffffffffffffffffffffffffff1681526020019081526020016000205401115b156107135781600360008673ffffffffffffffffffffffffffffffffffffffff1673ffffffffffffffffffffffffffffffffffffffff1681526020019081526020016000206000828254039250508190555081600460008673ffffffffffffffffffffffffffffffffffffffff1673ffffffffffffffffffffffffffffffffffffffff16815260200190815260200160002060003373ffffffffffffffffffffffffffffffffffffffff1673ffffffffffffffffffffffffffffffffffffffff1681526020019081526020016000206000828254039250508190555081600360008573ffffffffffffffffffffffffffffffffffffffff1673ffffffffffffffffffffffffffffffffffffffff168152602001908152602001600020600082825401925050819055508273ffffffffffffffffffffffffffffffffffffffff168473ffffffffffffffffffffffffffffffffffffffff167fddf252ad1be2c89b69c2b068fc378daa952ba7f163c4a11628f55a4df523b3ef846040518082815260200191505060405180910390a360019050610718565b600090505b9392505050565b6000600360008373ffffffffffffffffffffffffffffffffffffffff1673ffffffffffffffffffffffffffffffffffffffff168152602001908152602001600020549050919050565b600260009054906101000a900473ffffffffffffffffffffffffffffffffffffffff1681565b600081600360003373ffffffffffffffffffffffffffffffffffffffff1673ffffffffffffffffffffffffffffffffffffffff16815260200190815260200160002054101580156107df5750600082115b801561086a5750600360008473ffffffffffffffffffffffffffffffffffffffff1673ffffffffffffffffffffffffffffffffffffffff1681526020019081526020016000205482600360008673ffffffffffffffffffffffffffffffffffffffff1673ffffffffffffffffffffffffffffffffffffffff1681526020019081526020016000205401115b156109775781600360003373ffffffffffffffffffffffffffffffffffffffff1673ffffffffffffffffffffffffffffffffffffffff1681526020019081526020016000206000828254039250508190555081600360008573ffffffffffffffffffffffffffffffffffffffff1673ffffffffffffffffffffffffffffffffffffffff168152602001908152602001600020600082825401925050819055508273ffffffffffffffffffffffffffffffffffffffff163373ffffffffffffffffffffffffffffffffffffffff167fddf252ad1be2c89b69c2b068fc378daa952ba7f163c4a11628f55a4df523b3ef846040518082815260200191505060405180910390a36001905061097c565b600090505b92915050565b6000600460008473ffffffffffffffffffffffffffffffffffffffff1673ffffffffffffffffffffffffffffffffffffffff16815260200190815260200160002060008373ffffffffffffffffffffffffffffffffffffffff1673ffffffffffffffffffffffffffffffffffffffff16815260200190815260200160002054905092915050565b60006001549050905600a165627a7a723058200ead043b28991ae7e7bcf3c7300022534721665c6849e1a5321e99c2c8f87b020029",
  "source": "pragma solidity ^0.4.8;\r\n\r\nimport \"./ERC20Interface.sol\";\r\n\r\ncontract TokenContract is ERC20Interface {    \r\n  uint256 _totalSupply = 1000000;\r\n  address public owner;\r\n\r\n  // Balances for each account\r\n  mapping(address => uint256) balances;\r\n  \r\n  // Owner of account approves the transfer of an amount to another account\r\n  mapping(address => mapping (address => uint256)) allowed;\r\n\r\n  // Functions with this modifier can only be executed by the owner\r\n  modifier onlyOwner() {\r\n    if (msg.sender != owner) {\r\n      throw;\r\n    }\r\n    _;\r\n  }\r\n\r\n  function TokenContract() {\r\n    owner = msg.sender;\r\n    balances[owner] = _totalSupply;\r\n  }\r\n\r\n  function ttlSupply() constant returns (uint256 totalSupply) {\r\n    totalSupply = _totalSupply;\r\n  }\r\n\r\n  // What is the balance of a particular account?\r\n  function balanceOf(address owner) constant returns (uint256 balance) {\r\n    return balances[owner];\r\n  }\r\n  \r\n  // Transfer the balance from owner's account to another account\r\n  function transfer(address to, uint256 amount) returns (bool success) {\r\n    if (balances[msg.sender] >= amount \r\n      && amount > 0\r\n      && balances[to] + amount > balances[to]) {\r\n        balances[msg.sender] -= amount;\r\n        balances[to] += amount;\r\n        Transfer(msg.sender, to, amount);\r\n          return true;\r\n        } else {\r\n          return false;\r\n        }\r\n     }\r\n  \r\n  // Send value amount of tokens from address from to address to\r\n  // The transferFrom method is used for a withdraw workflow, allowing contracts to send\r\n  // tokens on your behalf, for example to \"deposit\" to a contract address and/or to charge\r\n  // fees in sub-currencies; the command should fail unless the from account has\r\n  // deliberately authorized the sender of the message via some mechanism; we propose\r\n  // these standardized APIs for approval:\r\n  function transferFrom(\r\n    address from,\r\n    address to,\r\n    uint256 amount\r\n  ) returns (bool success) {\r\n    if (balances[from] >= amount\r\n      && allowed[from][msg.sender] >= amount\r\n      && amount > 0\r\n      && balances[to] + amount > balances[to]) {\r\n        balances[from] -= amount;\r\n        allowed[from][msg.sender] -= amount;\r\n        balances[to] += amount;\r\n        Transfer(from, to, amount);\r\n        return true;\r\n    } else {\r\n      return false;\r\n    }\r\n  }\r\n  \r\n  // Allow spender to withdraw from your account, multiple times, up to the value amount.\r\n  // If this function is called again it overwrites the current allowance with value.\r\n  function approve(address spender, uint256 amount) returns (bool success) {\r\n    allowed[msg.sender][spender] = amount;\r\n    Approval(msg.sender, spender, amount);\r\n    return true;\r\n  }\r\n\r\n  function allowance(address owner, address spender) constant returns (uint256 remaining) {\r\n    return allowed[owner][spender];\r\n  }\r\n\r\n  event Transfer(address indexed from, address indexed to, uint256 value);\r\n\tevent Approval(address indexed owner, address indexed spender, uint256 value);\r\n\r\n}",
  "sourcePath": "C:\\Users\\Egor\\WebstormProjects\\ipfs_eth_daemon\\core\\middleware-eth-erc20\\contracts\\TokenContract.sol",
  "compiler": {
    "name": "solc",
    "version": "0.4.18+commit.9cf6e910.Emscripten.clang"
  },
  "schemaVersion": "1.0.1",
  "updatedAt": "2017-12-22T05:51:54.185Z"
}